:020000040800F2
:10000000600600200D020008490200084B020008AB
:100010004D0200084F0200085102000800000000D5
:100020000000000000000000000000005302000873
:10003000550200080000000057020008590200089D
:100040005B0200085B0200085B0200085B0200081C
:100050005B0200085B0200085B0200085B0200080C
:100060005B0200085B0200085B0200085B020008FC
:100070005B0200085B0200085B0200085B020008EC
:100080005B0200085B0200085B0200085B020008DC
:100090005B0200085B0200085B0200085B020008CC
:1000A0005B0200085B0200085B0200085B020008BC
:1000B0005B0200085B0200085B0200085B020008AC
:1000C0005B0200085B0200085B0200085B0200089C
:1000D0005B0200085B0200085B0200085B0200088C
:1000E0005B0200085B0200085B0200085B0200087C
:1000F0005B0200085B0200085B0200085B0200086C
:100100005B0200085B0200085B0200085B0200085B
:100110005B0200085B0200085B0200085B0200084B
:100120005B0200085B0200085B0200085B0200083B
:100130005B0200085B0200085B0200085B0200082B
:100140005B0200085B0200085B0200085B0200081B
:100150005B0200085B0200085B0200085B0200080B
:100160005B0200085B0200085B0200085B020008FB
:100170005B0200085B0200085B0200080000000050
:100180005B0200085B02000800F002F800F02EF8A5
:100190000AA090E8000C82448344AAF10107DA45E2
:1001A00001D100F023F8AFF2090EBAE80F0013F006
:1001B000010F18BFFB1A43F00103184704030000A6
:1001C000140300000023002400250026103A28BF55
:1001D00078C1FBD8520728BF30C148BF0B607047B9
:1001E0001FB500F067F91FBD10B510BD00F053F842
:1001F0001146FFF7F5FF00F015F900F071F803B4B0
:10020000FFF7F2FF03BC00F079F800001648174929
:10021000174B99423CBF50F8042B41F8042BF8D3FC
:1002200014494FF000028B4238BF43F8042BFAD335
:10023000DFF84400016841F470010160BFF34F8FA3
:10024000BFF36F8F0D480047FEE7FEE7FEE7FEE7CE
:10025000FEE7FEE7FEE7FEE7FEE7FEE7084809499E
:10026000094A0A4B70470000D00400080000002033
:10027000000000206006002088ED00E089010008F1
:100280006000002060060020600200206002002064
:10029000704770477047754600F02CF8AE46050071
:1002A0006946534620F00700854618B020B5FFF791
:1002B000D5FFBDE820404FF000064FF000074FF09B
:1002C00000084FF0000B21F00701AC46ACE8C00974
:1002D000ACE8C009ACE8C009ACE8C0098D4670477D
:1002E00010B50446AFF300802046BDE81040FFF78C
:1002F00086BF000000487047000000200149182018
:10030000ABBEFEE726000200704700000F48C06C3D
:1003100040F002000D49C8640D48006820F44050C8
:100320000B4908600846006840F40050086008481F
:100330002030006820F00F00054920310860084691
:10034000006840F000700860704700000010024034
:10035000000400483048806D40F004002E49886554
:100360002E4800686FF30F002C49086008460068AB
:1003700040F010000860081D00680020091D08609A
:100380000846006840F0C80008602448103800683B
:10039000234908402149103908600846006840F0A8
:1003A000400008600846006840F0200008600846E9
:1003B000006820F0080008600846006840F0080067
:1003C000086016482838006820F080001349283952
:1003D00008600846006840F0800008600F48083850
:1003E000006840F001000D49083908600B480C30E6
:1003F00000686FF30F0009490C3108600846006877
:1004000040F06400086005482838006840F00100AA
:10041000024928390860704700100240280800404F
:100420008FFFFEFF642201242048006840F48070A2
:100430001E49086000BF1D48006800F48060002865
:10044000F9D01A48806820F00300184988600846EF
:10045000806840F00100886000BF1448806800F0A8
:100460000C000028F9D0FFF751FFFFF773FF1BE0E6
:100470000F4800686FF30F000D49086008460068D8
:10048000104308602244C82A03DDC8224FF0FF341D
:1004900003E0002A01DA00220124002300E05B1CB3
:1004A00049F640408342FADBE2E7000000100240D8
:1004B000340800404FF04070E1EE100A7047000031
:1004C000D00400080000002060060000C4010008FD
:040000050800018965
:00000001FF
