:100000001FC039C038C037C036C035C034C033C057
:1000100032C031C030C02FC02EC02DC02CC02BC06C
:100020002AC029C028C027C026C025C024C023C09C
:1000300022C021C06364696E6F70737578585B006D
:1000400011241FBECFEFD4E0DEBFCDBF11E0A0E092
:10005000B1E0E8E8F8E002C005900D92A632B107E1
:10006000D9F711E0A6E2B1E001C01D92AC32B107B0
:10007000E1F7A4D007C4C4CF9091C00095FFFCCF96
:100080008093C60080E090E008958091C00087FFD3
:10009000FCCF8091C60008951092C5008CE080933B
:1000A000C40082E08093C0008EE08093C20088E1AB
:1000B0008093C10080E091E0909327018093260116
:1000C00090932901809328010895A0E5B0E0EAE625
:1000D000F0E082C0909026018090270180E287B9ED
:1000E00018B8459A80E187B9449888E087B9439861
:1000F00000E010E092E1C92E91E0D92E2EE0A22E70
:1001000021E0B22E38E0732E40E1642E50E2552EED
:10011000EE24E394F12CEC0EFD1EE00EF11EFF9296
:10012000EF92DF92CF928F929F927DD00F900F909F
:100130000F900F900F900F90019751F0BF92AF92D8
:100140008F929F9270D00F900F900F900F90E7CFEB
:10015000F70180818E3211F0803221F543E050E0CA
:1001600065E171E0CE01019650D0892B19F457B8A2
:1001700045981BC043E050E069E171E0CE01019673
:1001800044D0892B19F467B844980FC043E050E07D
:1001900060E271E0CE01019638D0892B31F477B856
:1001A000439803C00F5F1F4F02C000E010E000350E
:1001B00011050CF4ADCF00E010E0AACF6DDF2FE702
:1001C0008AE196E0215080409040E1F700C00000B5
:1001D0007CDF2F923F924F925F926F927F928F922D
:1001E0009F92AF92BF92CF92DF92EF92FF920F93C6
:1001F0001F93CF93DF93CDB7DEB7CA1BDB0B0FB6D0
:10020000F894DEBF0FBECDBF0994FB01DC01415065
:10021000504030F08D910190801919F40020B9F709
:10022000881B990B0895A0E0B0E0E8E1F1E0E1CF90
:10023000AE01475F5F4F6F8178858D819E8171D15F
:10024000E2E015C320FD09C0FC0123FD05C022FF2B
:1002500002C07383628351834083089544FD10C0BC
:1002600046FD10C0DB01FC01AA0FBB1FEE1FFF1FE4
:100270001094D1F76A0F7B1F8E1F9F1F31E003C0C0
:1002800033E001C034E0660F771F881F991F31509B
:10029000D1F7620F711D811D911D08950F931F935A
:1002A000CF93DF938C01C80178D2EC0197FD06C093
:1002B00061D2892BC1F7B801CE01ADD2CE01DF9159
:1002C000CF911F910F9108958F929F92AF92CF92ED
:1002D000DF92EF92FF920F931F93CF93DF93EC0186
:1002E000A62E4A01022F59D2AC0155274B32510597
:1002F00021F04D32510549F40068AA9411F480E0D0
:1003000060C0CE014AD297FDFACF102F1D7F302F4B
:100310003073F1F48033E1F4FF24FA94FA0C09F419
:100320003DC0CE013AD297FD39C0382F3F7D3835D8
:1003300049F41264AA94AA9489F1CE012ED297FFAF
:1003400007C02CC006FF02C0126001C01261AF2CB2
:10035000C12CD12C760120ED280F283078F014FF25
:1003600003C0BE0158D217C02A3040F016FFF9CFA3
:100370002F7D3FEE320F3630A0F72750412FC701B7
:10038000B6016CDF6B017C011260AA9451F0CE01C2
:1003900004D297FFE0CF11FD04C0B1CFC12CD12C06
:1003A000760117FF08C0F094E094D094C094C11C6B
:1003B000D11CE11CF11C212FB701A601C40142DFB1
:1003C00081E0DF91CF911F910F91FF90EF90DF902F
:1003D000CF90AF909F908F900895A1E2B0E0E2EFB0
:1003E000F1E0FCCE5C017A018E010F5F1F4F6801C6
:1003F00080E2D8011D928A95E9F7F501738040E00B
:1004000050E0812CB0E0912C81E090E0F90173FC88
:10041000A59173FEA1918F017A2F9F01A11103C0B5
:1004200080E090E07BC0AE3519F44115510559F1DB
:10043000E92DF0E0E417F5073CF4AD3569F1AD3294
:1004400019F4BB2319F103C0B11101C08A2EE72FA3
:10045000E695E695E69586010E0F111DF801A72F8A
:10046000A7708C0102C0000F111FAA95E2F7D801F6
:10047000B081BA2BB083781559F0781510F47F5FEE
:10048000E6CF7150E4CF9924939403C0B1E001C04A
:10049000B0E04F5F5F4FBACFBB2319F08E8180620F
:1004A0008E83911003C09924939415C0F601CE0158
:1004B0008196208120952193E817F907D1F7F3CF92
:1004C000E114F10429F0D7018C93F70131967F01F3
:1004D0006150F1F0912CC50169A35FD169A197FD2D
:1004E00015C0282F269526952695F601E20FF11DB9
:1004F000208130E0AC014770552702C03595279523
:100500004A95E2F720FDDCCFB50185D1911088CF67
:10051000E114F10411F0D7011C92C801A196EDE09D
:100520009BC14F925F927F928F929F92AF92BF92A8
:10053000CF92DF92EF92FF920F931F93CF93DF93AF
:100540001F92CDB7DEB78C012B017A01FC01178217
:100550001682A12CF801D380F201D3FC8591D3FE41
:100560008191382F2F01882309F4EEC090E0398360
:1005700001D13981892B19F0C80190DEEBCF3532DA
:1005800041F4F201D3FC3591D3FE31912F01353284
:1005900059F4C801398301D1398197FDD3C0381787
:1005A000C9F2B80138D1D0C03A3241F4D3FC359108
:1005B000D3FE31912F01BB24B39401C0B12C712C17
:1005C00020ED230F2A3088F4FB2DF260BF2E672D1B
:1005D00070E080E090E040E241DE762EF201D3FC54
:1005E0003591D3FE31912F01EBCFB1FE03C07110D5
:1005F00003C0AAC077247A94383619F03C3661F0EB
:1006000014C0F201D3FC3591D3FE31912F0138365D
:1006100061F4FB2DF860BF2E8B2D8460B82EF201A3
:10062000D3FC3591D3FE31912F01332309F48CC0D3
:10063000632F70E084E390E03983A4D03981892B63
:1006400009F482C0B0FC07C0F701C080D180C701A7
:1006500002967C0102C0C12CD12C3E3649F4F8012F
:100660004681578160E070E02B2DC601EBDD72CF33
:10067000333699F4B1FC02C077247394C8018DD04D
:1006800097FD60C0C114D10429F0F6018083C60132
:1006900001966C017A9491F751C03B3551F4920167
:1006A000A601672DC80199DE2C01009709F046C00C
:1006B00040C0C8013983F2DD398197FD43C03F3620
:1006C00051F128F4343619F1393661F128C0333745
:1006D00069F03537E1F023C0C114D10429F0F601E7
:1006E0008082C60101966C017A9459F0C80155D0F8
:1006F0004C0197FD06C03ED0892B71F3B801C401AF
:100700008AD0C114D104D1F0F601108217C0FB2D9C
:10071000F062BF2E07C08B2D8061B82E03C09B2DC9
:100720009064B92E2B2DA601672DC801CDDD811156
:1007300005C0F8018381807329F406C0B0FC0ACF9C
:10074000A39408CFAA2019F08A2D90E002C08FEF61
:100750009FEF0F90DF91CF911F910F91FF90EF903E
:10076000DF90CF90BF90AF909F908F907F905F90E1
:100770004F900895911168C0803219F089508550CA
:10078000D0F70895FC010590061621F00020D9F756
:10079000C00108953197CF010895CF93DF93EC0105
:1007A0002B8120FF33C026FF0AC02F7B2B838E8135
:1007B0009F8101969F838E838A8190E029C022FFCA
:1007C0000FC0E881F9818081992787FD9095009776
:1007D00019F420622B831AC03196F983E8830EC086
:1007E000EA85FB85099597FF09C02B81019611F4D5
:1007F00080E101C080E2822B8B8308C02E813F8183
:100800002F5F3F4F3F832E83992702C08FEF9FEFCB
:10081000DF91CF910895FB01238120FF12C026FDB7
:1008200010C08F3F3FEF930761F082832F7D2064DC
:1008300023832681378121503109378326839927E5
:1008400008958FEF9FEF08959927882708952A88A4
:10085000398848885F846E847D848C849B84AA84D4
:10086000B984C884DF80EE80FD800C811B81AA8161
:10087000B981CE0FD11D0FB6F894DEBF0FBECDBF2C
:08088000ED010895F894FFCF8B
:1008880000000003000000003C0045000000252A8D
:1008980073002563007265640079656C6C6F77007E
:0608A800677265656E0039
:00000001FF
