:100000001FC039C038C037C036C035C034C033C057
:1000100032C031C030C02FC02EC02DC02CC02BC06C
:100020002AC029C028C027C026C025C024C023C09C
:1000300022C021C06364696E6F70737578585B006D
:1000400011241FBECFEFD4E0DEBFCDBF11E0A0E092
:10005000B1E0E2ECFDE002C005900D92A235B107DF
:10006000D9F711E0A2E5B1E001C01D92A835B107B2
:10007000E1F7A1D0A4C6C4CF8091C00087FFFCCF18
:100080008091C60008959091C00095FFFCCF8093A9
:10009000C60080E090E008951092C5008CE0809347
:1000A000C40082E08093C0008EE08093C20088E1AB
:1000B0008093C10080E091E09093530180935201BE
:1000C00090935501809354010895A0E5B0E0EAE6CD
:1000D000F0E07CC0309052012090530150905401C8
:1000E000409055018FEF87B918B8652D742D8EE0BB
:1000F00091E0A5D0612C712C8E010F5F1F4F88E21B
:10010000C82E81E0D82E94E2A92E91E0B92E2BE2E0
:10011000822E21E0922E7801E60CF71CFF92EF92DE
:10012000DF92CF922F923F92B2D00F900F900F900C
:100130000F900F900F90019751F0BF92AF922F92B6
:100140003F92A5D00F900F900F900F90E7CFF7013F
:1001500080818E3211F0803219F51F930F939F9298
:100160008F924F925F925CD046E050E061E371E085
:10017000C80148D00F900F900F900F900F900F90E4
:10018000652D742D892B29F488E391E058D045988A
:1001900004C084E491E053D0459A612C712C03C0D3
:1001A000FFEF6F1A7F0A80E5681671040CF4B3CF75
:1001B000612C712CB0CF70DF2FE78AE196E02150DF
:1001C00080409040E1F700C000007FDF2F923F9217
:1001D0004F925F926F927F928F929F92AF92BF9257
:1001E000CF92DF92EF92FF920F931F93CF93DF9303
:1001F000CDB7DEB7CA1BDB0B0FB6F894DEBF0FBE60
:10020000CDBF0994FB01DC014150504030F08D918D
:100210000190801919F40020B9F7881B990B0895F3
:10022000A0E0B0E0E5E1F1E0E1CFAE01475F5F4F74
:100230006F8178858D819E8139D0E2E0B5C5EF92DE
:10024000FF920F931F93CF93DF938B01DB011396E4
:100250002C9121FF16C0EC01E12CF12C899188230F
:1002600071F0D8011896ED91FC911997B801099594
:10027000892BA1F3EE24EA94FF24FA94EFCFC7016F
:1002800002C08FEF9FEFCDB7DEB7E6E089C5A0E0F3
:10029000B0E0ECE4F1E0AACFAE01475F5F4F6F81C1
:1002A00078858D819E8134D3E2E07EC5ACE0B0E0FC
:1002B000EBE5F1E08BCF7C016B018A01FC01178239
:1002C0001682838181FFB0C1CE0101964C01F701F6
:1002D0009381F60193FD859193FF81916F018823AE
:1002E00009F49EC1853239F493FD859193FF819184
:1002F0006F01853221F4B70190E09AD4E8CF512CF8
:10030000312C20E02032A0F48B3269F030F48032BE
:1003100059F0833269F420612CC08D3239F080337A
:1003200039F4216026C02260246023C0286021C0E7
:1003300027FD27C030ED380F3A3078F426FF06C08D
:10034000FAE05F9E300D1124532E13C08AE0389ED0
:10035000300D1124332E20620CC08E3221F426FD84
:100360005FC1206406C08C3611F4206802C0883654
:1003700041F4F60193FD859193FF81916F01811105
:10038000C1CF982F9F7D9554933028F40C5F1F4F59
:10039000FFE3F9830DC0833631F0833771F0833585
:1003A00009F057C021C0F801808189830E5F1F4F7B
:1003B00044244394512C540114C03801F2E06F0ED0
:1003C000711CF801A080B18026FF03C0652D70E08C
:1003D00002C06FEF7FEFC5012C87E1D32C018301B1
:1003E0002C852F77222E16C03801F2E06F0E711C7B
:1003F000F801A080B18026FF03C0652D70E002C027
:100400006FEF7FEFC5012C87BFD32C012C852068AF
:10041000222E830123FC19C0832D90E04816590633
:10042000A0F4B70180E290E003D43A94F5CFF5014F
:1004300027FC859127FE81915F01B70190E0F8D3F9
:1004400031103A94F1E04F1A51084114510479F7F0
:10045000DEC0843611F0893631F5F80127FF07C078
:1004600060817181828193810C5F1F4F08C0608120
:100470007181882777FD8095982F0E5F1F4F2F760B
:10048000B22E97FF09C090958095709561957F4F2A
:100490008F4F9F4F2068B22E2AE030E0A40113D482
:1004A000A82EA81843C0853729F42F7EB22E2AE043
:1004B00030E025C0F22FF97FBF2E8F36C1F018F43F
:1004C000883579F0ADC0803719F0883721F0A8C0A1
:1004D0002F2F2061B22EB4FE0DC08B2D8460B82E5C
:1004E00009C024FF0AC09F2F9660B92E06C028E0DD
:1004F00030E005C020E130E002C020E132E0F80148
:10050000B7FE07C060817181828193810C5F1F4FAC
:1005100006C06081718180E090E00E5F1F4FA401F2
:10052000D2D3A82EA818FB2DFF77BF2EB6FE0BC086
:100530002B2D2E7FA51450F4B4FE0AC0B2FC08C0C7
:100540002B2D2E7E05C07A2C2B2D03C07A2C01C0BA
:10055000752C24FF0DC0FE01EA0DF11D8081803352
:1005600011F4297E09C022FF06C07394739404C05D
:10057000822F867809F0739423FD12C020FF06C0F5
:100580005A2C731418F4530C5718732C731460F40A
:10059000B70180E290E02C874BD373942C85F6CF83
:1005A000731410F4371801C0312C24FF11C0B701A7
:1005B00080E390E02C873CD32C8522FF16C021FFDE
:1005C00003C088E590E002C088E790E0B7010CC066
:1005D000822F867851F021FD02C080E201C08BE2BB
:1005E00027FD8DE2B70190E023D3A51430F4B701C5
:1005F00080E390E01DD35A94F8CFAA94F401EA0D59
:10060000F11D8081B70190E013D3A110F6CF332004
:1006100009F45DCEB70180E290E00AD33A94F7CFB7
:10062000F7018681978102C08FEF9FEF2C96E2E160
:10063000ABC320FD09C0FC0123FD05C022FF02C0A1
:100640007383628351834083089544FD10C046FD47
:1006500010C0DB01FC01AA0FBB1FEE1FFF1F10948F
:10066000D1F76A0F7B1F8E1F9F1F31E003C033E05D
:1006700001C034E0660F771F881F991F3150D1F7F2
:10068000620F711D811D911D08950F931F93CF93CC
:10069000DF938C01C8018ED2EC0197FD06C061D2B8
:1006A000892BC1F7B801CE01F5D2CE01DF91CF91F0
:1006B0001F910F9108958F929F92AF92CF92DF92E8
:1006C000EF92FF920F931F93CF93DF93EC01A62E2F
:1006D0004A01022F6FD2AC0155274B32510521F050
:1006E0004D32510549F40068AA9411F480E060C0CD
:1006F000CE0160D297FDFACF102F1D7F302F3073BF
:10070000F1F48033E1F4FF24FA94FA0C09F43DC0CB
:10071000CE0150D297FD39C0382F3F7D383549F48E
:100720001264AA94AA9489F1CE0144D297FF07C01B
:100730002CC006FF02C0126001C01261AF2CC12C98
:10074000D12C760120ED280F283078F014FF03C05B
:10075000BE01A0D217C02A3040F016FFF9CF2F7D7E
:100760003FEE320F3630A0F72750412FC701B601B8
:100770006CDF6B017C011260AA9451F0CE011AD299
:1007800097FFE0CF11FD04C0B1CFC12CD12C760171
:1007900017FF08C0F094E094D094C094C11CD11C01
:1007A000E11CF11C212FB701A601C40142DF81E049
:1007B000DF91CF911F910F91FF90EF90DF90CF903D
:1007C000AF909F908F900895A1E2B0E0E9EEF3E042
:1007D00002CD5C017A018E010F5F1F4F680180E23C
:1007E000D8011D928A95E9F7F501738040E050E049
:1007F000812CB0E0912C81E090E0F90173FCA5918F
:1008000073FEA1918F017A2F9F01A11103C080E097
:1008100090E07BC0AE3519F44115510559F1E92D31
:10082000F0E0E417F5073CF4AD3569F1AD3219F4A9
:10083000BB2319F103C0B11101C08A2EE72FE69541
:10084000E695E69586010E0F111DF801A72FA770FA
:100850008C0102C0000F111FAA95E2F7D801B081E8
:10086000BA2BB083781559F0781510F47F5FE6CF76
:100870007150E4CF9924939403C0B1E001C0B0E07B
:100880004F5F5F4FBACFBB2319F08E8180628E839A
:10089000911003C09924939415C0F601CE0181965E
:1008A000208120952193E817F907D1F7F3CFE114C0
:1008B000F10429F0D7018C93F70131967F01615043
:1008C000F1F0912CC50169A375D169A197FD15C0FF
:1008D000282F269526952695F601E20FF11D2081F9
:1008E00030E0AC014770552702C0359527954A95F1
:1008F000E2F720FDDCCFB501CDD1911088CFE11416
:10090000F10411F0D7011C92C801A196EDE041C29B
:100910004F925F927F928F929F92AF92BF92CF92AF
:10092000DF92EF92FF920F931F93CF93DF931F926B
:10093000CDB7DEB78C012B017A01FC01178216823C
:10094000A12CF801D380F201D3FC8591D3FE8191D3
:10095000382F2F01882309F4EEC090E0398301D1AC
:100960003981892B19F0C80190DEEBCF353241F483
:10097000F201D3FC3591D3FE31912F01353259F478
:10098000C801398317D1398197FDD3C03817C9F20F
:10099000B80180D1D0C03A3241F4D3FC3591D3FEB6
:1009A00031912F01BB24B39401C0B12C712C20EDE7
:1009B000230F2A3088F4FB2DF260BF2E672D70E0E4
:1009C00080E090E040E241DE762EF201D3FC3591EA
:1009D000D3FE31912F01EBCFB1FE03C0711003C0E4
:1009E000AAC077247A94383619F03C3661F014C0E6
:1009F000F201D3FC3591D3FE31912F01383661F4E9
:100A0000FB2DF860BF2E8B2D8460B82EF201D3FC35
:100A10003591D3FE31912F01332309F48CC0632F1C
:100A200070E084E390E03983A4D03981892B09F404
:100A300082C0B0FC07C0F701C080D180C701029618
:100A40007C0102C0C12CD12C3E3649F4F80146810C
:100A5000578160E070E02B2DC601EBDD72CF33369D
:100A600099F4B1FC02C077247394C801A3D097FD18
:100A700060C0C114D10429F0F6018083C60101963B
:100A80006C017A9491F751C03B3551F49201A60163
:100A9000672DC80199DE2C01009709F046C040C0BF
:100AA000C8013983F2DD398197FD43C03F3651F1EA
:100AB00028F4343619F1393661F128C0333769F03A
:100AC0003537E1F023C0C114D10429F0F60180824A
:100AD000C60101966C017A9459F0C8016BD04C01A3
:100AE00097FD06C03ED0892B71F3B801C401D2D066
:100AF000C114D104D1F0F601108217C0FB2DF062B1
:100B0000BF2E07C08B2D8061B82E03C09B2D906433
:100B1000B92E2B2DA601672DC801CDDD811105C091
:100B2000F8018381807329F406C0B0FC0ACFA39436
:100B300008CFAA2019F08A2D90E002C08FEF9FEF16
:100B40000F90DF91CF911F910F91FF90EF90DF9069
:100B5000CF90BF90AF909F908F907F905F904F907D
:100B6000089591110EC1803219F089508550D0F747
:100B70000895FC010590061621F00020D9F7C00168
:100B800008953197CF010895FC01059061507040A0
:100B90000110D8F7809590958E0F9F1F0895FC0146
:100BA0006150704001900110D8F7809590958E0F9C
:100BB0009F1F0895CF93DF93EC012B8120FF33C05B
:100BC00026FF0AC02F7B2B838E819F8101969F83F6
:100BD0008E838A8190E029C022FF0FC0E881F981CD
:100BE0008081992787FD9095009719F420622B83C7
:100BF0001AC03196F983E8830EC0EA85FB85099512
:100C000097FF09C02B81019611F480E101C080E2B9
:100C1000822B8B8308C02E813F812F5F3F4F3F8304
:100C20002E83992702C08FEF9FEFDF91CF91089518
:100C30000F931F93CF93DF93182F092FEB018B8115
:100C400081FD03C08FEF9FEF20C082FF10C04E8157
:100C50005F812C813D81421753077CF4E881F98143
:100C60009F012F5F3F4F39832883108306C0E8859B
:100C7000F985812F0995892B29F72E813F812F5FD7
:100C80003F4F3F832E83812F902FDF91CF911F9174
:100C90000F910895FB01238120FF12C026FD10C093
:100CA0008F3F3FEF930761F082832F7D2064238382
:100CB000268137812150310937832683992708956A
:100CC0008FEF9FEF0895FA01AA27283051F12031C4
:100CD00081F1E8946F936E7F6E5F7F4F8F4F9F4FD0
:100CE000AF4FB1E03ED0B4E03CD0670F781F891F12
:100CF0009A1FA11D680F791F8A1F911DA11D6A0FE0
:100D0000711D811D911DA11D20D009F468943F9192
:100D10002AE0269F11243019305D3193DEF6CF0191
:100D20000895462F4770405D4193B3E00FD0C9F757
:100D3000F6CF462F4F70405D4A3318F0495D31FDC4
:100D40004052419302D0A9F7EACFB4E0A695979517
:100D5000879577956795BA95C9F7009761057105ED
:100D600008959B01AC010A2E069457954795379537
:100D70002795BA95C9F7620F731F841F951FA01D91
:100D800008959927882708952A88398848885F8494
:100D90006E847D848C849B84AA84B984C884DF801B
:100DA000EE80FD800C811B81AA81B981CE0FD11DFF
:100DB0000FB6F894DEBF0FBECDBFED010895F894D5
:020DC000FFCF63
:100DC200000000030000000043003C000000506CE3
:100DD20065617365206675636B696E6720776F72F4
:100DE2006B0D0A00252A73002563002573200D0A66
:100DF2000042656E6E6574000A436F7272656374B9
:100E0200210D0A000A496E636F7272656374210DC7
:020E12000A00D4
:00000001FF
